{
  "_format": "hh-sol-artifact-1",
  "contractName": "AneemaCollection",
  "sourceName": "contracts/AneemaCollection.sol",
  "abi": [
    {
      "inputs": [],
      "stateMutability": "nonpayable",
      "type": "constructor"
    },
    {
      "inputs": [
        {
          "internalType": "address",
          "name": "sender",
          "type": "address"
        },
        {
          "internalType": "uint256",
          "name": "tokenId",
          "type": "uint256"
        },
        {
          "internalType": "address",
          "name": "owner",
          "type": "address"
        }
      ],
      "name": "ERC721IncorrectOwner",
      "type": "error"
    },
    {
      "inputs": [
        {
          "internalType": "address",
          "name": "operator",
          "type": "address"
        },
        {
          "internalType": "uint256",
          "name": "tokenId",
          "type": "uint256"
        }
      ],
      "name": "ERC721InsufficientApproval",
      "type": "error"
    },
    {
      "inputs": [
        {
          "internalType": "address",
          "name": "approver",
          "type": "address"
        }
      ],
      "name": "ERC721InvalidApprover",
      "type": "error"
    },
    {
      "inputs": [
        {
          "internalType": "address",
          "name": "operator",
          "type": "address"
        }
      ],
      "name": "ERC721InvalidOperator",
      "type": "error"
    },
    {
      "inputs": [
        {
          "internalType": "address",
          "name": "owner",
          "type": "address"
        }
      ],
      "name": "ERC721InvalidOwner",
      "type": "error"
    },
    {
      "inputs": [
        {
          "internalType": "address",
          "name": "receiver",
          "type": "address"
        }
      ],
      "name": "ERC721InvalidReceiver",
      "type": "error"
    },
    {
      "inputs": [
        {
          "internalType": "address",
          "name": "sender",
          "type": "address"
        }
      ],
      "name": "ERC721InvalidSender",
      "type": "error"
    },
    {
      "inputs": [
        {
          "internalType": "uint256",
          "name": "tokenId",
          "type": "uint256"
        }
      ],
      "name": "ERC721NonexistentToken",
      "type": "error"
    },
    {
      "inputs": [
        {
          "internalType": "address",
          "name": "owner",
          "type": "address"
        }
      ],
      "name": "OwnableInvalidOwner",
      "type": "error"
    },
    {
      "inputs": [
        {
          "internalType": "address",
          "name": "account",
          "type": "address"
        }
      ],
      "name": "OwnableUnauthorizedAccount",
      "type": "error"
    },
    {
      "anonymous": false,
      "inputs": [
        {
          "indexed": true,
          "internalType": "address",
          "name": "owner",
          "type": "address"
        },
        {
          "indexed": true,
          "internalType": "address",
          "name": "approved",
          "type": "address"
        },
        {
          "indexed": true,
          "internalType": "uint256",
          "name": "tokenId",
          "type": "uint256"
        }
      ],
      "name": "Approval",
      "type": "event"
    },
    {
      "anonymous": false,
      "inputs": [
        {
          "indexed": true,
          "internalType": "address",
          "name": "owner",
          "type": "address"
        },
        {
          "indexed": true,
          "internalType": "address",
          "name": "operator",
          "type": "address"
        },
        {
          "indexed": false,
          "internalType": "bool",
          "name": "approved",
          "type": "bool"
        }
      ],
      "name": "ApprovalForAll",
      "type": "event"
    },
    {
      "anonymous": false,
      "inputs": [
        {
          "indexed": true,
          "internalType": "address",
          "name": "previousOwner",
          "type": "address"
        },
        {
          "indexed": true,
          "internalType": "address",
          "name": "newOwner",
          "type": "address"
        }
      ],
      "name": "OwnershipTransferred",
      "type": "event"
    },
    {
      "anonymous": false,
      "inputs": [
        {
          "indexed": true,
          "internalType": "address",
          "name": "from",
          "type": "address"
        },
        {
          "indexed": true,
          "internalType": "address",
          "name": "to",
          "type": "address"
        },
        {
          "indexed": true,
          "internalType": "uint256",
          "name": "tokenId",
          "type": "uint256"
        }
      ],
      "name": "Transfer",
      "type": "event"
    },
    {
      "inputs": [
        {
          "internalType": "address",
          "name": "to",
          "type": "address"
        },
        {
          "internalType": "uint256",
          "name": "tokenId",
          "type": "uint256"
        }
      ],
      "name": "approve",
      "outputs": [],
      "stateMutability": "nonpayable",
      "type": "function"
    },
    {
      "inputs": [
        {
          "internalType": "address",
          "name": "owner",
          "type": "address"
        }
      ],
      "name": "balanceOf",
      "outputs": [
        {
          "internalType": "uint256",
          "name": "",
          "type": "uint256"
        }
      ],
      "stateMutability": "view",
      "type": "function"
    },
    {
      "inputs": [
        {
          "internalType": "uint256",
          "name": "tokenId",
          "type": "uint256"
        }
      ],
      "name": "burn",
      "outputs": [],
      "stateMutability": "nonpayable",
      "type": "function"
    },
    {
      "inputs": [
        {
          "internalType": "uint256",
          "name": "tokenId",
          "type": "uint256"
        }
      ],
      "name": "getApproved",
      "outputs": [
        {
          "internalType": "address",
          "name": "",
          "type": "address"
        }
      ],
      "stateMutability": "view",
      "type": "function"
    },
    {
      "inputs": [
        {
          "internalType": "address",
          "name": "owner",
          "type": "address"
        },
        {
          "internalType": "address",
          "name": "operator",
          "type": "address"
        }
      ],
      "name": "isApprovedForAll",
      "outputs": [
        {
          "internalType": "bool",
          "name": "",
          "type": "bool"
        }
      ],
      "stateMutability": "view",
      "type": "function"
    },
    {
      "inputs": [
        {
          "internalType": "address",
          "name": "recipient",
          "type": "address"
        },
        {
          "internalType": "string",
          "name": "tokenURI",
          "type": "string"
        }
      ],
      "name": "mintTo",
      "outputs": [
        {
          "internalType": "uint256",
          "name": "",
          "type": "uint256"
        }
      ],
      "stateMutability": "nonpayable",
      "type": "function"
    },
    {
      "inputs": [],
      "name": "name",
      "outputs": [
        {
          "internalType": "string",
          "name": "",
          "type": "string"
        }
      ],
      "stateMutability": "view",
      "type": "function"
    },
    {
      "inputs": [],
      "name": "owner",
      "outputs": [
        {
          "internalType": "address",
          "name": "",
          "type": "address"
        }
      ],
      "stateMutability": "view",
      "type": "function"
    },
    {
      "inputs": [
        {
          "internalType": "uint256",
          "name": "tokenId",
          "type": "uint256"
        }
      ],
      "name": "ownerOf",
      "outputs": [
        {
          "internalType": "address",
          "name": "",
          "type": "address"
        }
      ],
      "stateMutability": "view",
      "type": "function"
    },
    {
      "inputs": [],
      "name": "renounceOwnership",
      "outputs": [],
      "stateMutability": "nonpayable",
      "type": "function"
    },
    {
      "inputs": [
        {
          "internalType": "address",
          "name": "from",
          "type": "address"
        },
        {
          "internalType": "address",
          "name": "to",
          "type": "address"
        },
        {
          "internalType": "uint256",
          "name": "tokenId",
          "type": "uint256"
        }
      ],
      "name": "safeTransferFrom",
      "outputs": [],
      "stateMutability": "nonpayable",
      "type": "function"
    },
    {
      "inputs": [
        {
          "internalType": "address",
          "name": "from",
          "type": "address"
        },
        {
          "internalType": "address",
          "name": "to",
          "type": "address"
        },
        {
          "internalType": "uint256",
          "name": "tokenId",
          "type": "uint256"
        },
        {
          "internalType": "bytes",
          "name": "data",
          "type": "bytes"
        }
      ],
      "name": "safeTransferFrom",
      "outputs": [],
      "stateMutability": "nonpayable",
      "type": "function"
    },
    {
      "inputs": [
        {
          "internalType": "address",
          "name": "operator",
          "type": "address"
        },
        {
          "internalType": "bool",
          "name": "approved",
          "type": "bool"
        }
      ],
      "name": "setApprovalForAll",
      "outputs": [],
      "stateMutability": "nonpayable",
      "type": "function"
    },
    {
      "inputs": [
        {
          "internalType": "uint256",
          "name": "tokenId",
          "type": "uint256"
        },
        {
          "internalType": "string",
          "name": "tokenURI",
          "type": "string"
        }
      ],
      "name": "setTokenURI",
      "outputs": [],
      "stateMutability": "nonpayable",
      "type": "function"
    },
    {
      "inputs": [
        {
          "internalType": "bytes4",
          "name": "interfaceId",
          "type": "bytes4"
        }
      ],
      "name": "supportsInterface",
      "outputs": [
        {
          "internalType": "bool",
          "name": "",
          "type": "bool"
        }
      ],
      "stateMutability": "view",
      "type": "function"
    },
    {
      "inputs": [],
      "name": "symbol",
      "outputs": [
        {
          "internalType": "string",
          "name": "",
          "type": "string"
        }
      ],
      "stateMutability": "view",
      "type": "function"
    },
    {
      "inputs": [
        {
          "internalType": "uint256",
          "name": "tokenId",
          "type": "uint256"
        }
      ],
      "name": "tokenURI",
      "outputs": [
        {
          "internalType": "string",
          "name": "",
          "type": "string"
        }
      ],
      "stateMutability": "view",
      "type": "function"
    },
    {
      "inputs": [
        {
          "internalType": "address",
          "name": "from",
          "type": "address"
        },
        {
          "internalType": "address",
          "name": "to",
          "type": "address"
        },
        {
          "internalType": "uint256",
          "name": "tokenId",
          "type": "uint256"
        }
      ],
      "name": "transferFrom",
      "outputs": [],
      "stateMutability": "nonpayable",
      "type": "function"
    },
    {
      "inputs": [
        {
          "internalType": "address",
          "name": "newOwner",
          "type": "address"
        }
      ],
      "name": "transferOwnership",
      "outputs": [],
      "stateMutability": "nonpayable",
      "type": "function"
    }
  ],
  "bytecode": "0x608060405260006007553480156200001657600080fd5b50336040518060400160405280601581526020017f416e65656d6120436f6c6c656374696f6e204e465400000000000000000000008152506040518060400160405280600481526020017f414e465400000000000000000000000000000000000000000000000000000000815250816000908162000095919062000477565b508060019081620000a7919062000477565b505050600073ffffffffffffffffffffffffffffffffffffffff168173ffffffffffffffffffffffffffffffffffffffff16036200011f5760006040517f1e4fbdf7000000000000000000000000000000000000000000000000000000008152600401620001169190620005a3565b60405180910390fd5b62000130816200013760201b60201c565b50620005c0565b6000600660009054906101000a900473ffffffffffffffffffffffffffffffffffffffff16905081600660006101000a81548173ffffffffffffffffffffffffffffffffffffffff021916908373ffffffffffffffffffffffffffffffffffffffff1602179055508173ffffffffffffffffffffffffffffffffffffffff168173ffffffffffffffffffffffffffffffffffffffff167f8be0079c531659141344cd1fd0a4f28419497f9722a3daafe3b4186f6b6457e060405160405180910390a35050565b600081519050919050565b7f4e487b7100000000000000000000000000000000000000000000000000000000600052604160045260246000fd5b7f4e487b7100000000000000000000000000000000000000000000000000000000600052602260045260246000fd5b600060028204905060018216806200027f57607f821691505b60208210810362000295576200029462000237565b5b50919050565b60008190508160005260206000209050919050565b60006020601f8301049050919050565b600082821b905092915050565b600060088302620002ff7fffffffffffffffffffffffffffffffffffffffffffffffffffffffffffffffff82620002c0565b6200030b8683620002c0565b95508019841693508086168417925050509392505050565b6000819050919050565b6000819050919050565b600062000358620003526200034c8462000323565b6200032d565b62000323565b9050919050565b6000819050919050565b620003748362000337565b6200038c62000383826200035f565b848454620002cd565b825550505050565b600090565b620003a362000394565b620003b081848462000369565b505050565b5b81811015620003d857620003cc60008262000399565b600181019050620003b6565b5050565b601f8211156200042757620003f1816200029b565b620003fc84620002b0565b810160208510156200040c578190505b620004246200041b85620002b0565b830182620003b5565b50505b505050565b600082821c905092915050565b60006200044c600019846008026200042c565b1980831691505092915050565b600062000467838362000439565b9150826002028217905092915050565b6200048282620001fd565b67ffffffffffffffff8111156200049e576200049d62000208565b5b620004aa825462000266565b620004b7828285620003dc565b600060209050601f831160018114620004ef5760008415620004da578287015190505b620004e6858262000459565b86555062000556565b601f198416620004ff866200029b565b60005b82811015620005295784890151825560018201915060208501945060208101905062000502565b8683101562000549578489015162000545601f89168262000439565b8355505b6001600288020188555050505b505050505050565b600073ffffffffffffffffffffffffffffffffffffffff82169050919050565b60006200058b826200055e565b9050919050565b6200059d816200057e565b82525050565b6000602082019050620005ba600083018462000592565b92915050565b6128f480620005d06000396000f3fe608060405234801561001057600080fd5b50600436106101205760003560e01c80636352211e116100ad578063a22cb46511610071578063a22cb46514610305578063b88d4fde14610321578063c87b56dd1461033d578063e985e9c51461036d578063f2fde38b1461039d57610120565b80636352211e1461025f57806370a082311461028f578063715018a6146102bf5780638da5cb5b146102c957806395d89b41146102e757610120565b8063095ea7b3116100f4578063095ea7b3146101d3578063162094c4146101ef57806323b872dd1461020b57806342842e0e1461022757806342966c681461024357610120565b806275a3171461012557806301ffc9a71461015557806306fdde0314610185578063081812fc146101a3575b600080fd5b61013f600480360381019061013a9190611c58565b6103b9565b60405161014c9190611ccd565b60405180910390f35b61016f600480360381019061016a9190611d40565b610423565b60405161017c9190611d88565b60405180910390f35b61018d610505565b60405161019a9190611e22565b60405180910390f35b6101bd60048036038101906101b89190611e70565b610597565b6040516101ca9190611eac565b60405180910390f35b6101ed60048036038101906101e89190611ec7565b6105b3565b005b61020960048036038101906102049190611f07565b6105c9565b005b61022560048036038101906102209190611f63565b61066d565b005b610241600480360381019061023c9190611f63565b61076f565b005b61025d60048036038101906102589190611e70565b61078f565b005b61027960048036038101906102749190611e70565b6107a6565b6040516102869190611eac565b60405180910390f35b6102a960048036038101906102a49190611fb6565b6107b8565b6040516102b69190611ccd565b60405180910390f35b6102c7610872565b005b6102d1610886565b6040516102de9190611eac565b60405180910390f35b6102ef6108b0565b6040516102fc9190611e22565b60405180910390f35b61031f600480360381019061031a919061200f565b610942565b005b61033b600480360381019061033691906120f0565b610958565b005b61035760048036038101906103529190611e70565b610975565b6040516103649190611e22565b60405180910390f35b61038760048036038101906103829190612173565b610aef565b6040516103949190611d88565b60405180910390f35b6103b760048036038101906103b29190611fb6565b610b83565b005b60006103c3610c09565b600060016007546103d491906121e2565b9050600760008154809291906103e990612216565b91905055506103f88482610c90565b82600860008381526020019081526020016000209081610418919061246a565b508091505092915050565b60007f80ac58cd000000000000000000000000000000000000000000000000000000007bffffffffffffffffffffffffffffffffffffffffffffffffffffffff1916827bffffffffffffffffffffffffffffffffffffffffffffffffffffffff191614806104ee57507f5b5e139f000000000000000000000000000000000000000000000000000000007bffffffffffffffffffffffffffffffffffffffffffffffffffffffff1916827bffffffffffffffffffffffffffffffffffffffffffffffffffffffff1916145b806104fe57506104fd82610d89565b5b9050919050565b6060600080546105149061228d565b80601f01602080910402602001604051908101604052809291908181526020018280546105409061228d565b801561058d5780601f106105625761010080835404028352916020019161058d565b820191906000526020600020905b81548152906001019060200180831161057057829003601f168201915b5050505050905090565b60006105a282610df3565b506105ac82610e7b565b9050919050565b6105c582826105c0610eb8565b610ec0565b5050565b6105d1610c09565b600073ffffffffffffffffffffffffffffffffffffffff166105f283610ed2565b73ffffffffffffffffffffffffffffffffffffffff1603610648576040517f08c379a000000000000000000000000000000000000000000000000000000000815260040161063f906125ae565b60405180910390fd5b80600860008481526020019081526020016000209081610668919061246a565b505050565b600073ffffffffffffffffffffffffffffffffffffffff168273ffffffffffffffffffffffffffffffffffffffff16036106df5760006040517f64a0ae920000000000000000000000000000000000000000000000000000000081526004016106d69190611eac565b60405180910390fd5b60006106f383836106ee610eb8565b610f0f565b90508373ffffffffffffffffffffffffffffffffffffffff168173ffffffffffffffffffffffffffffffffffffffff1614610769578382826040517f64283d7b000000000000000000000000000000000000000000000000000000008152600401610760939291906125ce565b60405180910390fd5b50505050565b61078a83838360405180602001604052806000815250610958565b505050565b6107a260008261079d610eb8565b610f0f565b5050565b60006107b182610df3565b9050919050565b60008073ffffffffffffffffffffffffffffffffffffffff168273ffffffffffffffffffffffffffffffffffffffff160361082b5760006040517f89c62b640000000000000000000000000000000000000000000000000000000081526004016108229190611eac565b60405180910390fd5b600360008373ffffffffffffffffffffffffffffffffffffffff1673ffffffffffffffffffffffffffffffffffffffff168152602001908152602001600020549050919050565b61087a610c09565b6108846000611129565b565b6000600660009054906101000a900473ffffffffffffffffffffffffffffffffffffffff16905090565b6060600180546108bf9061228d565b80601f01602080910402602001604051908101604052809291908181526020018280546108eb9061228d565b80156109385780601f1061090d57610100808354040283529160200191610938565b820191906000526020600020905b81548152906001019060200180831161091b57829003601f168201915b5050505050905090565b61095461094d610eb8565b83836111ef565b5050565b61096384848461066d565b61096f8484848461135e565b50505050565b6060600073ffffffffffffffffffffffffffffffffffffffff1661099883610ed2565b73ffffffffffffffffffffffffffffffffffffffff16036109ee576040517f08c379a00000000000000000000000000000000000000000000000000000000081526004016109e590612677565b60405180910390fd5b6000600860008481526020019081526020016000208054610a0e9061228d565b905011610a4b57610a1d611515565b610a2683611535565b604051602001610a3792919061271f565b604051602081830303815290604052610ae8565b600860008381526020019081526020016000208054610a699061228d565b80601f0160208091040260200160405190810160405280929190818152602001828054610a959061228d565b8015610ae25780601f10610ab757610100808354040283529160200191610ae2565b820191906000526020600020905b815481529060010190602001808311610ac557829003601f168201915b50505050505b9050919050565b6000600560008473ffffffffffffffffffffffffffffffffffffffff1673ffffffffffffffffffffffffffffffffffffffff16815260200190815260200160002060008373ffffffffffffffffffffffffffffffffffffffff1673ffffffffffffffffffffffffffffffffffffffff16815260200190815260200160002060009054906101000a900460ff16905092915050565b610b8b610c09565b600073ffffffffffffffffffffffffffffffffffffffff168173ffffffffffffffffffffffffffffffffffffffff1603610bfd5760006040517f1e4fbdf7000000000000000000000000000000000000000000000000000000008152600401610bf49190611eac565b60405180910390fd5b610c0681611129565b50565b610c11610eb8565b73ffffffffffffffffffffffffffffffffffffffff16610c2f610886565b73ffffffffffffffffffffffffffffffffffffffff1614610c8e57610c52610eb8565b6040517f118cdaa7000000000000000000000000000000000000000000000000000000008152600401610c859190611eac565b60405180910390fd5b565b600073ffffffffffffffffffffffffffffffffffffffff168273ffffffffffffffffffffffffffffffffffffffff1603610d025760006040517f64a0ae92000000000000000000000000000000000000000000000000000000008152600401610cf99190611eac565b60405180910390fd5b6000610d1083836000610f0f565b9050600073ffffffffffffffffffffffffffffffffffffffff168173ffffffffffffffffffffffffffffffffffffffff1614610d845760006040517f73c6ac6e000000000000000000000000000000000000000000000000000000008152600401610d7b9190611eac565b60405180910390fd5b505050565b60007f01ffc9a7000000000000000000000000000000000000000000000000000000007bffffffffffffffffffffffffffffffffffffffffffffffffffffffff1916827bffffffffffffffffffffffffffffffffffffffffffffffffffffffff1916149050919050565b600080610dff83610ed2565b9050600073ffffffffffffffffffffffffffffffffffffffff168173ffffffffffffffffffffffffffffffffffffffff1603610e7257826040517f7e273289000000000000000000000000000000000000000000000000000000008152600401610e699190611ccd565b60405180910390fd5b80915050919050565b60006004600083815260200190815260200160002060009054906101000a900473ffffffffffffffffffffffffffffffffffffffff169050919050565b600033905090565b610ecd8383836001611603565b505050565b60006002600083815260200190815260200160002060009054906101000a900473ffffffffffffffffffffffffffffffffffffffff169050919050565b600080610f1b84610ed2565b9050600073ffffffffffffffffffffffffffffffffffffffff168373ffffffffffffffffffffffffffffffffffffffff1614610f5d57610f5c8184866117c8565b5b600073ffffffffffffffffffffffffffffffffffffffff168173ffffffffffffffffffffffffffffffffffffffff1614610fee57610f9f600085600080611603565b6001600360008373ffffffffffffffffffffffffffffffffffffffff1673ffffffffffffffffffffffffffffffffffffffff168152602001908152602001600020600082825403925050819055505b600073ffffffffffffffffffffffffffffffffffffffff168573ffffffffffffffffffffffffffffffffffffffff1614611071576001600360008773ffffffffffffffffffffffffffffffffffffffff1673ffffffffffffffffffffffffffffffffffffffff168152602001908152602001600020600082825401925050819055505b846002600086815260200190815260200160002060006101000a81548173ffffffffffffffffffffffffffffffffffffffff021916908373ffffffffffffffffffffffffffffffffffffffff160217905550838573ffffffffffffffffffffffffffffffffffffffff168273ffffffffffffffffffffffffffffffffffffffff167fddf252ad1be2c89b69c2b068fc378daa952ba7f163c4a11628f55a4df523b3ef60405160405180910390a4809150509392505050565b6000600660009054906101000a900473ffffffffffffffffffffffffffffffffffffffff16905081600660006101000a81548173ffffffffffffffffffffffffffffffffffffffff021916908373ffffffffffffffffffffffffffffffffffffffff1602179055508173ffffffffffffffffffffffffffffffffffffffff168173ffffffffffffffffffffffffffffffffffffffff167f8be0079c531659141344cd1fd0a4f28419497f9722a3daafe3b4186f6b6457e060405160405180910390a35050565b600073ffffffffffffffffffffffffffffffffffffffff168273ffffffffffffffffffffffffffffffffffffffff160361126057816040517f5b08ba180000000000000000000000000000000000000000000000000000000081526004016112579190611eac565b60405180910390fd5b80600560008573ffffffffffffffffffffffffffffffffffffffff1673ffffffffffffffffffffffffffffffffffffffff16815260200190815260200160002060008473ffffffffffffffffffffffffffffffffffffffff1673ffffffffffffffffffffffffffffffffffffffff16815260200190815260200160002060006101000a81548160ff0219169083151502179055508173ffffffffffffffffffffffffffffffffffffffff168373ffffffffffffffffffffffffffffffffffffffff167f17307eab39ab6107e8899845ad3d59bd9653f200f220920489ca2b5937696c31836040516113519190611d88565b60405180910390a3505050565b60008373ffffffffffffffffffffffffffffffffffffffff163b111561150f578273ffffffffffffffffffffffffffffffffffffffff1663150b7a026113a2610eb8565b8685856040518563ffffffff1660e01b81526004016113c494939291906127a3565b6020604051808303816000875af192505050801561140057506040513d601f19601f820116820180604052508101906113fd9190612804565b60015b611484573d8060008114611430576040519150601f19603f3d011682016040523d82523d6000602084013e611435565b606091505b50600081510361147c57836040517f64a0ae920000000000000000000000000000000000000000000000000000000081526004016114739190611eac565b60405180910390fd5b805181602001fd5b63150b7a0260e01b7bffffffffffffffffffffffffffffffffffffffffffffffffffffffff1916817bffffffffffffffffffffffffffffffffffffffffffffffffffffffff19161461150d57836040517f64a0ae920000000000000000000000000000000000000000000000000000000081526004016115049190611eac565b60405180910390fd5b505b50505050565b606060405180606001604052806035815260200161288a60359139905090565b6060600060016115448461188c565b01905060008167ffffffffffffffff81111561156357611562611b2d565b5b6040519080825280601f01601f1916602001820160405280156115955781602001600182028036833780820191505090505b509050600082602001820190505b6001156115f8578080600190039150507f3031323334353637383961626364656600000000000000000000000000000000600a86061a8153600a85816115ec576115eb612831565b5b049450600085036115a3575b819350505050919050565b808061163c5750600073ffffffffffffffffffffffffffffffffffffffff168273ffffffffffffffffffffffffffffffffffffffff1614155b1561177057600061164c84610df3565b9050600073ffffffffffffffffffffffffffffffffffffffff168373ffffffffffffffffffffffffffffffffffffffff16141580156116b757508273ffffffffffffffffffffffffffffffffffffffff168173ffffffffffffffffffffffffffffffffffffffff1614155b80156116ca57506116c88184610aef565b155b1561170c57826040517fa9fbf51f0000000000000000000000000000000000000000000000000000000081526004016117039190611eac565b60405180910390fd5b811561176e57838573ffffffffffffffffffffffffffffffffffffffff168273ffffffffffffffffffffffffffffffffffffffff167f8c5be1e5ebec7d5bd14f71427d1e84f3dd0314c0f7b2291e5b200ac8c7c3b92560405160405180910390a45b505b836004600085815260200190815260200160002060006101000a81548173ffffffffffffffffffffffffffffffffffffffff021916908373ffffffffffffffffffffffffffffffffffffffff16021790555050505050565b6117d38383836119df565b61188757600073ffffffffffffffffffffffffffffffffffffffff168373ffffffffffffffffffffffffffffffffffffffff160361184857806040517f7e27328900000000000000000000000000000000000000000000000000000000815260040161183f9190611ccd565b60405180910390fd5b81816040517f177e802f00000000000000000000000000000000000000000000000000000000815260040161187e929190612860565b60405180910390fd5b505050565b600080600090507a184f03e93ff9f4daa797ed6e38ed64bf6a1f01000000000000000083106118ea577a184f03e93ff9f4daa797ed6e38ed64bf6a1f01000000000000000083816118e0576118df612831565b5b0492506040810190505b6d04ee2d6d415b85acef81000000008310611927576d04ee2d6d415b85acef8100000000838161191d5761191c612831565b5b0492506020810190505b662386f26fc10000831061195657662386f26fc10000838161194c5761194b612831565b5b0492506010810190505b6305f5e100831061197f576305f5e100838161197557611974612831565b5b0492506008810190505b61271083106119a457612710838161199a57611999612831565b5b0492506004810190505b606483106119c757606483816119bd576119bc612831565b5b0492506002810190505b600a83106119d6576001810190505b80915050919050565b60008073ffffffffffffffffffffffffffffffffffffffff168373ffffffffffffffffffffffffffffffffffffffff1614158015611a9757508273ffffffffffffffffffffffffffffffffffffffff168473ffffffffffffffffffffffffffffffffffffffff161480611a585750611a578484610aef565b5b80611a9657508273ffffffffffffffffffffffffffffffffffffffff16611a7e83610e7b565b73ffffffffffffffffffffffffffffffffffffffff16145b5b90509392505050565b6000604051905090565b600080fd5b600080fd5b600073ffffffffffffffffffffffffffffffffffffffff82169050919050565b6000611adf82611ab4565b9050919050565b611aef81611ad4565b8114611afa57600080fd5b50565b600081359050611b0c81611ae6565b92915050565b600080fd5b600080fd5b6000601f19601f8301169050919050565b7f4e487b7100000000000000000000000000000000000000000000000000000000600052604160045260246000fd5b611b6582611b1c565b810181811067ffffffffffffffff82111715611b8457611b83611b2d565b5b80604052505050565b6000611b97611aa0565b9050611ba38282611b5c565b919050565b600067ffffffffffffffff821115611bc357611bc2611b2d565b5b611bcc82611b1c565b9050602081019050919050565b82818337600083830152505050565b6000611bfb611bf684611ba8565b611b8d565b905082815260208101848484011115611c1757611c16611b17565b5b611c22848285611bd9565b509392505050565b600082601f830112611c3f57611c3e611b12565b5b8135611c4f848260208601611be8565b91505092915050565b60008060408385031215611c6f57611c6e611aaa565b5b6000611c7d85828601611afd565b925050602083013567ffffffffffffffff811115611c9e57611c9d611aaf565b5b611caa85828601611c2a565b9150509250929050565b6000819050919050565b611cc781611cb4565b82525050565b6000602082019050611ce26000830184611cbe565b92915050565b60007fffffffff0000000000000000000000000000000000000000000000000000000082169050919050565b611d1d81611ce8565b8114611d2857600080fd5b50565b600081359050611d3a81611d14565b92915050565b600060208284031215611d5657611d55611aaa565b5b6000611d6484828501611d2b565b91505092915050565b60008115159050919050565b611d8281611d6d565b82525050565b6000602082019050611d9d6000830184611d79565b92915050565b600081519050919050565b600082825260208201905092915050565b60005b83811015611ddd578082015181840152602081019050611dc2565b60008484015250505050565b6000611df482611da3565b611dfe8185611dae565b9350611e0e818560208601611dbf565b611e1781611b1c565b840191505092915050565b60006020820190508181036000830152611e3c8184611de9565b905092915050565b611e4d81611cb4565b8114611e5857600080fd5b50565b600081359050611e6a81611e44565b92915050565b600060208284031215611e8657611e85611aaa565b5b6000611e9484828501611e5b565b91505092915050565b611ea681611ad4565b82525050565b6000602082019050611ec16000830184611e9d565b92915050565b60008060408385031215611ede57611edd611aaa565b5b6000611eec85828601611afd565b9250506020611efd85828601611e5b565b9150509250929050565b60008060408385031215611f1e57611f1d611aaa565b5b6000611f2c85828601611e5b565b925050602083013567ffffffffffffffff811115611f4d57611f4c611aaf565b5b611f5985828601611c2a565b9150509250929050565b600080600060608486031215611f7c57611f7b611aaa565b5b6000611f8a86828701611afd565b9350506020611f9b86828701611afd565b9250506040611fac86828701611e5b565b9150509250925092565b600060208284031215611fcc57611fcb611aaa565b5b6000611fda84828501611afd565b91505092915050565b611fec81611d6d565b8114611ff757600080fd5b50565b60008135905061200981611fe3565b92915050565b6000806040838503121561202657612025611aaa565b5b600061203485828601611afd565b925050602061204585828601611ffa565b9150509250929050565b600067ffffffffffffffff82111561206a57612069611b2d565b5b61207382611b1c565b9050602081019050919050565b600061209361208e8461204f565b611b8d565b9050828152602081018484840111156120af576120ae611b17565b5b6120ba848285611bd9565b509392505050565b600082601f8301126120d7576120d6611b12565b5b81356120e7848260208601612080565b91505092915050565b6000806000806080858703121561210a57612109611aaa565b5b600061211887828801611afd565b945050602061212987828801611afd565b935050604061213a87828801611e5b565b925050606085013567ffffffffffffffff81111561215b5761215a611aaf565b5b612167878288016120c2565b91505092959194509250565b6000806040838503121561218a57612189611aaa565b5b600061219885828601611afd565b92505060206121a985828601611afd565b9150509250929050565b7f4e487b7100000000000000000000000000000000000000000000000000000000600052601160045260246000fd5b60006121ed82611cb4565b91506121f883611cb4565b92508282019050808211156122105761220f6121b3565b5b92915050565b600061222182611cb4565b91507fffffffffffffffffffffffffffffffffffffffffffffffffffffffffffffffff8203612253576122526121b3565b5b600182019050919050565b7f4e487b7100000000000000000000000000000000000000000000000000000000600052602260045260246000fd5b600060028204905060018216806122a557607f821691505b6020821081036122b8576122b761225e565b5b50919050565b60008190508160005260206000209050919050565b60006020601f8301049050919050565b600082821b905092915050565b6000600883026123207fffffffffffffffffffffffffffffffffffffffffffffffffffffffffffffffff826122e3565b61232a86836122e3565b95508019841693508086168417925050509392505050565b6000819050919050565b600061236761236261235d84611cb4565b612342565b611cb4565b9050919050565b6000819050919050565b6123818361234c565b61239561238d8261236e565b8484546122f0565b825550505050565b600090565b6123aa61239d565b6123b5818484612378565b505050565b5b818110156123d9576123ce6000826123a2565b6001810190506123bb565b5050565b601f82111561241e576123ef816122be565b6123f8846122d3565b81016020851015612407578190505b61241b612413856122d3565b8301826123ba565b50505b505050565b600082821c905092915050565b600061244160001984600802612423565b1980831691505092915050565b600061245a8383612430565b9150826002028217905092915050565b61247382611da3565b67ffffffffffffffff81111561248c5761248b611b2d565b5b612496825461228d565b6124a18282856123dd565b600060209050601f8311600181146124d457600084156124c2578287015190505b6124cc858261244e565b865550612534565b601f1984166124e2866122be565b60005b8281101561250a578489015182556001820191506020850194506020810190506124e5565b868310156125275784890151612523601f891682612430565b8355505b6001600288020188555050505b505050505050565b7f4552433732314d657461646174613a2055524920736574206f66206e6f6e657860008201527f697374656e7420746f6b656e0000000000000000000000000000000000000000602082015250565b6000612598602c83611dae565b91506125a38261253c565b604082019050919050565b600060208201905081810360008301526125c78161258b565b9050919050565b60006060820190506125e36000830186611e9d565b6125f06020830185611cbe565b6125fd6040830184611e9d565b949350505050565b7f4552433732314d657461646174613a2055524920717565727920666f72206e6f60008201527f6e6578697374656e7420746f6b656e0000000000000000000000000000000000602082015250565b6000612661602f83611dae565b915061266c82612605565b604082019050919050565b6000602082019050818103600083015261269081612654565b9050919050565b600081905092915050565b60006126ad82611da3565b6126b78185612697565b93506126c7818560208601611dbf565b80840191505092915050565b7f2e6a736f6e000000000000000000000000000000000000000000000000000000600082015250565b6000612709600583612697565b9150612714826126d3565b600582019050919050565b600061272b82856126a2565b915061273782846126a2565b9150612742826126fc565b91508190509392505050565b600081519050919050565b600082825260208201905092915050565b60006127758261274e565b61277f8185612759565b935061278f818560208601611dbf565b61279881611b1c565b840191505092915050565b60006080820190506127b86000830187611e9d565b6127c56020830186611e9d565b6127d26040830185611cbe565b81810360608301526127e4818461276a565b905095945050505050565b6000815190506127fe81611d14565b92915050565b60006020828403121561281a57612819611aaa565b5b6000612828848285016127ef565b91505092915050565b7f4e487b7100000000000000000000000000000000000000000000000000000000600052601260045260246000fd5b60006040820190506128756000830185611e9d565b6128826020830184611cbe565b939250505056fe68747470733a2f2f62656967652d70617469656e742d6369636164612d3338382e6d7970696e6174612e636c6f75642f697066732fa264697066735822122042dbf24b03a0a09d3322f470bba8e82297b493c3c2e93ac2df6c272a0b1e935a64736f6c63430008180033",
  "linkReferences": {},
  "deployedLinkReferences": {}
}